S01700004763634170706C69636174696F6E342E7372656358
S11300000C9434000C9451000C9451000C94510045
S11300100C9451000C9451000C9451000C94510018
S11300200C9451000C9451000C9451000C94510008
S11300300C9451000C9451000C9451000C945100F8
S11300400C9451000C9451000C9451000C945100E8
S11300500C9451000C9451000C9451000C945100D8
S11300600C9451000C94510011241FBECFEFD8E022
S1130070DEBFCDBF11E0A0E0B1E0E4E8F2E002C0F1
S113008005900D92A031B107D9F721E0A0E1B1E0CC
S113009001C01D92A532B207E1F70E9468000C94DA
S11300A040010C9400001092C50087E68093C400C0
S11300B088E98093C10086E08093C200089580910E
S11300C0C0008823E4F78091C6008093220108953C
S11300D08AB188608AB98AB18B7F8AB92FEF80E7A9
S11300E092E0215080409040E1F700C000000E945F
S11300F0530082E28093C6002FEF81EE94E02150FA
S113010080409040E1F700C000001092210110925D
S1130110200114C08093C6002FEF81EE94E021509B
S113012080409040E1F700C0000080912001909150
S1130130210101969093210180932001E0912001F7
S1130140F0912101E050FF4F8081803219F7E6ECF5
S1130150F0E082E280832FEF81EE94E02150804032
S11301609040E1F700C000008DE080832FEF89E626
S113017098E1215080409040E1F700C000001092C7
S113018021011092200114C08093C6002FEF81EE4C
S113019094E0215080409040E1F700C0000080913D
S11301A020019091210101969093210180932001D7
S11301B0E0912001F0912101E45FFE4F80818032C3
S11301C019F78AE18093C6002FEF81EE94E0215065
S11301D080409040E1F700C000000E945F008093DF
S11301E0100104C00E945F008093100180911001EF
S11301F08B32C1F70E945F0080931001833469F74A
S11302000E945F00809310018D3439F70E945F00D3
S113021080931001843509F70E945F0080931001D8
S11302208A33D9F60E945F008093100104C00E94B3
S11302305F0080931001809110018A30C1F70E9401
S11302405F0080931001C1E1D1E088830E945F00C8
S11302508093100189830E945F00809310018A8338
S11302600E945F00809310018B830E945F00809343
S113027010018C830E945F00809310018D83ADCFA9
S1070280F894FFCF1C
S11302843934373734363838323636004869000062
S9030000FC
